{
  "_format": "hh-sol-artifact-1",
  "contractName": "CrowdFund",
  "sourceName": "contracts/Crowdfund.sol",
  "abi": [
    {
      "inputs": [],
      "stateMutability": "nonpayable",
      "type": "constructor"
    },
    {
      "anonymous": false,
      "inputs": [
        {
          "indexed": false,
          "internalType": "uint256",
          "name": "id",
          "type": "uint256"
        }
      ],
      "name": "Cancel",
      "type": "event"
    },
    {
      "anonymous": false,
      "inputs": [
        {
          "indexed": false,
          "internalType": "uint256",
          "name": "id",
          "type": "uint256"
        }
      ],
      "name": "Claim",
      "type": "event"
    },
    {
      "anonymous": false,
      "inputs": [
        {
          "indexed": false,
          "internalType": "uint256",
          "name": "id",
          "type": "uint256"
        },
        {
          "indexed": true,
          "internalType": "address",
          "name": "creator",
          "type": "address"
        },
        {
          "indexed": false,
          "internalType": "uint256",
          "name": "goal",
          "type": "uint256"
        },
        {
          "indexed": false,
          "internalType": "uint32",
          "name": "startAt",
          "type": "uint32"
        },
        {
          "indexed": false,
          "internalType": "uint32",
          "name": "endAt",
          "type": "uint32"
        }
      ],
      "name": "Launch",
      "type": "event"
    },
    {
      "anonymous": false,
      "inputs": [
        {
          "indexed": true,
          "internalType": "uint256",
          "name": "id",
          "type": "uint256"
        },
        {
          "indexed": true,
          "internalType": "address",
          "name": "caller",
          "type": "address"
        },
        {
          "indexed": false,
          "internalType": "uint256",
          "name": "amount",
          "type": "uint256"
        }
      ],
      "name": "Pledge",
      "type": "event"
    },
    {
      "anonymous": false,
      "inputs": [
        {
          "indexed": false,
          "internalType": "uint256",
          "name": "id",
          "type": "uint256"
        },
        {
          "indexed": true,
          "internalType": "address",
          "name": "caller",
          "type": "address"
        },
        {
          "indexed": false,
          "internalType": "uint256",
          "name": "amount",
          "type": "uint256"
        }
      ],
      "name": "Refund",
      "type": "event"
    },
    {
      "anonymous": false,
      "inputs": [
        {
          "indexed": true,
          "internalType": "uint256",
          "name": "id",
          "type": "uint256"
        },
        {
          "indexed": true,
          "internalType": "address",
          "name": "caller",
          "type": "address"
        },
        {
          "indexed": false,
          "internalType": "uint256",
          "name": "amount",
          "type": "uint256"
        }
      ],
      "name": "Unpledge",
      "type": "event"
    },
    {
      "inputs": [
        {
          "internalType": "uint256",
          "name": "",
          "type": "uint256"
        }
      ],
      "name": "campaigns",
      "outputs": [
        {
          "internalType": "address",
          "name": "creator",
          "type": "address"
        },
        {
          "internalType": "uint256",
          "name": "goal",
          "type": "uint256"
        },
        {
          "internalType": "uint256",
          "name": "pledged",
          "type": "uint256"
        },
        {
          "internalType": "uint32",
          "name": "startAt",
          "type": "uint32"
        },
        {
          "internalType": "uint32",
          "name": "endAt",
          "type": "uint32"
        },
        {
          "internalType": "bool",
          "name": "claimed",
          "type": "bool"
        }
      ],
      "stateMutability": "view",
      "type": "function"
    },
    {
      "inputs": [
        {
          "internalType": "uint256",
          "name": "_id",
          "type": "uint256"
        }
      ],
      "name": "cancel",
      "outputs": [],
      "stateMutability": "nonpayable",
      "type": "function"
    },
    {
      "inputs": [
        {
          "internalType": "uint256",
          "name": "_id",
          "type": "uint256"
        }
      ],
      "name": "claim",
      "outputs": [],
      "stateMutability": "nonpayable",
      "type": "function"
    },
    {
      "inputs": [],
      "name": "count",
      "outputs": [
        {
          "internalType": "uint256",
          "name": "",
          "type": "uint256"
        }
      ],
      "stateMutability": "view",
      "type": "function"
    },
    {
      "inputs": [
        {
          "internalType": "uint256",
          "name": "_id",
          "type": "uint256"
        }
      ],
      "name": "getCampaign",
      "outputs": [
        {
          "internalType": "address",
          "name": "creator",
          "type": "address"
        },
        {
          "internalType": "uint256",
          "name": "goal",
          "type": "uint256"
        },
        {
          "internalType": "uint256",
          "name": "pledged",
          "type": "uint256"
        },
        {
          "internalType": "uint32",
          "name": "startAt",
          "type": "uint32"
        },
        {
          "internalType": "uint32",
          "name": "endAt",
          "type": "uint32"
        },
        {
          "internalType": "bool",
          "name": "claimed",
          "type": "bool"
        }
      ],
      "stateMutability": "view",
      "type": "function"
    },
    {
      "inputs": [
        {
          "internalType": "uint256",
          "name": "_goal",
          "type": "uint256"
        },
        {
          "internalType": "uint32",
          "name": "_startAt",
          "type": "uint32"
        },
        {
          "internalType": "uint32",
          "name": "_endAt",
          "type": "uint32"
        }
      ],
      "name": "launch",
      "outputs": [],
      "stateMutability": "nonpayable",
      "type": "function"
    },
    {
      "inputs": [
        {
          "internalType": "uint256",
          "name": "_id",
          "type": "uint256"
        }
      ],
      "name": "pledge",
      "outputs": [],
      "stateMutability": "payable",
      "type": "function"
    },
    {
      "inputs": [
        {
          "internalType": "uint256",
          "name": "",
          "type": "uint256"
        },
        {
          "internalType": "address",
          "name": "",
          "type": "address"
        }
      ],
      "name": "pledgedAmount",
      "outputs": [
        {
          "internalType": "uint256",
          "name": "",
          "type": "uint256"
        }
      ],
      "stateMutability": "view",
      "type": "function"
    },
    {
      "inputs": [
        {
          "internalType": "uint256",
          "name": "_id",
          "type": "uint256"
        },
        {
          "internalType": "uint256",
          "name": "_amount",
          "type": "uint256"
        }
      ],
      "name": "unpledge",
      "outputs": [],
      "stateMutability": "nonpayable",
      "type": "function"
    }
  ],
  "bytecode": "0x608060405234801561001057600080fd5b506117c1806100206000396000f3fe6080604052600436106100865760003560e01c806340e58ee51161005957806340e58ee51461014a5780635598f8cc14610173578063711853ab146101b55780637326c9c0146101de578063aa4fb63a146101fa57610086565b806306661abd1461008b578063141961bc146100b65780632c63f146146100f8578063379607f514610121575b600080fd5b34801561009757600080fd5b506100a0610237565b6040516100ad9190610f54565b60405180910390f35b3480156100c257600080fd5b506100dd60048036038101906100d89190610fa0565b61023d565b6040516100ef96959493929190611048565b60405180910390f35b34801561010457600080fd5b5061011f600480360381019061011a91906110d5565b6102c6565b005b34801561012d57600080fd5b5061014860048036038101906101439190610fa0565b61055c565b005b34801561015657600080fd5b50610171600480360381019061016c9190610fa0565b6107a1565b005b34801561017f57600080fd5b5061019a60048036038101906101959190610fa0565b610a1c565b6040516101ac96959493929190611048565b60405180910390f35b3480156101c157600080fd5b506101dc60048036038101906101d79190611128565b610b4c565b005b6101f860048036038101906101f39190610fa0565b610d70565b005b34801561020657600080fd5b50610221600480360381019061021c9190611194565b610f16565b60405161022e9190610f54565b60405180910390f35b60005481565b60016020528060005260406000206000915090508060000160009054906101000a900473ffffffffffffffffffffffffffffffffffffffff16908060010154908060020154908060030160009054906101000a900463ffffffff16908060030160049054906101000a900463ffffffff16908060030160089054906101000a900460ff16905086565b428263ffffffff16101561030f576040517f08c379a000000000000000000000000000000000000000000000000000000000815260040161030690611231565b60405180910390fd5b8163ffffffff168163ffffffff16101561035e576040517f08c379a00000000000000000000000000000000000000000000000000000000081526004016103559061129d565b60405180910390fd5b6276a7004261036d91906112ec565b8163ffffffff1611156103b5576040517f08c379a00000000000000000000000000000000000000000000000000000000081526004016103ac9061136c565b60405180910390fd5b60016000808282546103c791906112ec565b925050819055506040518060c001604052803373ffffffffffffffffffffffffffffffffffffffff168152602001848152602001600081526020018363ffffffff1681526020018263ffffffff16815260200160001515815250600160008054815260200190815260200160002060008201518160000160006101000a81548173ffffffffffffffffffffffffffffffffffffffff021916908373ffffffffffffffffffffffffffffffffffffffff160217905550602082015181600101556040820151816002015560608201518160030160006101000a81548163ffffffff021916908363ffffffff16021790555060808201518160030160046101000a81548163ffffffff021916908363ffffffff16021790555060a08201518160030160086101000a81548160ff0219169083151502179055509050503373ffffffffffffffffffffffffffffffffffffffff167f0601cd0d650b473037e838a2696d41e654433d065b3f56b28d1d3302e44a304f60005485858560405161054f949392919061138c565b60405180910390a2505050565b60006001600083815260200190815260200160002090503373ffffffffffffffffffffffffffffffffffffffff168160000160009054906101000a900473ffffffffffffffffffffffffffffffffffffffff1673ffffffffffffffffffffffffffffffffffffffff1614610605576040517f08c379a00000000000000000000000000000000000000000000000000000000081526004016105fc9061141d565b60405180910390fd5b8060030160049054906101000a900463ffffffff1663ffffffff164211610661576040517f08c379a000000000000000000000000000000000000000000000000000000000815260040161065890611489565b60405180910390fd5b8060010154816002015410156106ac576040517f08c379a00000000000000000000000000000000000000000000000000000000081526004016106a3906114f5565b60405180910390fd5b8060030160089054906101000a900460ff16156106fe576040517f08c379a00000000000000000000000000000000000000000000000000000000081526004016106f590611561565b60405180910390fd5b60018160030160086101000a81548160ff0219169083151502179055503373ffffffffffffffffffffffffffffffffffffffff166108fc82600201549081150290604051600060405180830381858888f19350505050158015610765573d6000803e3d6000fd5b507f7bb2b3c10797baccb6f8c4791f1edd6ca2f0d028ee0eda64b01a9a57e3a653f7826040516107959190610f54565b60405180910390a15050565b6000600160008381526020019081526020016000206040518060c00160405290816000820160009054906101000a900473ffffffffffffffffffffffffffffffffffffffff1673ffffffffffffffffffffffffffffffffffffffff1673ffffffffffffffffffffffffffffffffffffffff16815260200160018201548152602001600282015481526020016003820160009054906101000a900463ffffffff1663ffffffff1663ffffffff1681526020016003820160049054906101000a900463ffffffff1663ffffffff1663ffffffff1681526020016003820160089054906101000a900460ff16151515158152505090503373ffffffffffffffffffffffffffffffffffffffff16816000015173ffffffffffffffffffffffffffffffffffffffff1614610906576040517f08c379a00000000000000000000000000000000000000000000000000000000081526004016108fd9061141d565b60405180910390fd5b806060015163ffffffff164210610952576040517f08c379a0000000000000000000000000000000000000000000000000000000008152600401610949906115cd565b60405180910390fd5b60016000838152602001908152602001600020600080820160006101000a81549073ffffffffffffffffffffffffffffffffffffffff0219169055600182016000905560028201600090556003820160006101000a81549063ffffffff02191690556003820160046101000a81549063ffffffff02191690556003820160086101000a81549060ff021916905550507f8bf30e7ff26833413be5f69e1d373744864d600b664204b4a2f9844a8eedb9ed82604051610a109190610f54565b60405180910390a15050565b6000806000806000806000600160008981526020019081526020016000206040518060c00160405290816000820160009054906101000a900473ffffffffffffffffffffffffffffffffffffffff1673ffffffffffffffffffffffffffffffffffffffff1673ffffffffffffffffffffffffffffffffffffffff16815260200160018201548152602001600282015481526020016003820160009054906101000a900463ffffffff1663ffffffff1663ffffffff1681526020016003820160049054906101000a900463ffffffff1663ffffffff1663ffffffff1681526020016003820160089054906101000a900460ff1615151515815250509050806000015181602001518260400151836060015184608001518560a001519650965096509650965096505091939550919395565b60006001600084815260200190815260200160002090508060030160049054906101000a900463ffffffff1663ffffffff16421115610bc0576040517f08c379a0000000000000000000000000000000000000000000000000000000008152600401610bb790611639565b60405180910390fd5b816002600085815260200190815260200160002060003373ffffffffffffffffffffffffffffffffffffffff1673ffffffffffffffffffffffffffffffffffffffff168152602001908152602001600020541015610c53576040517f08c379a0000000000000000000000000000000000000000000000000000000008152600401610c4a906116cb565b60405180910390fd5b81816002016000828254610c6791906116eb565b92505081905550816002600085815260200190815260200160002060003373ffffffffffffffffffffffffffffffffffffffff1673ffffffffffffffffffffffffffffffffffffffff1681526020019081526020016000206000828254610cce91906116eb565b925050819055503373ffffffffffffffffffffffffffffffffffffffff166108fc839081150290604051600060405180830381858888f19350505050158015610d1b573d6000803e3d6000fd5b503373ffffffffffffffffffffffffffffffffffffffff16837f2eeeab891b26a214d1b25749f88a406bdea852bd8c9bfda977e0ef8114c180ba84604051610d639190610f54565b60405180910390a3505050565b60006001600083815260200190815260200160002090508060030160009054906101000a900463ffffffff1663ffffffff16421015610de4576040517f08c379a0000000000000000000000000000000000000000000000000000000008152600401610ddb9061176b565b60405180910390fd5b8060030160049054906101000a900463ffffffff1663ffffffff16421115610e41576040517f08c379a0000000000000000000000000000000000000000000000000000000008152600401610e3890611639565b60405180910390fd5b34816002016000828254610e5591906112ec565b92505081905550346002600084815260200190815260200160002060003373ffffffffffffffffffffffffffffffffffffffff1673ffffffffffffffffffffffffffffffffffffffff1681526020019081526020016000206000828254610ebc91906112ec565b925050819055503373ffffffffffffffffffffffffffffffffffffffff16827f06bdb975df800a73232998e71ed585d536222f1dfeaa622d7f62a23ada686c8234604051610f0a9190610f54565b60405180910390a35050565b6002602052816000526040600020602052806000526040600020600091509150505481565b6000819050919050565b610f4e81610f3b565b82525050565b6000602082019050610f696000830184610f45565b92915050565b600080fd5b610f7d81610f3b565b8114610f8857600080fd5b50565b600081359050610f9a81610f74565b92915050565b600060208284031215610fb657610fb5610f6f565b5b6000610fc484828501610f8b565b91505092915050565b600073ffffffffffffffffffffffffffffffffffffffff82169050919050565b6000610ff882610fcd565b9050919050565b61100881610fed565b82525050565b600063ffffffff82169050919050565b6110278161100e565b82525050565b60008115159050919050565b6110428161102d565b82525050565b600060c08201905061105d6000830189610fff565b61106a6020830188610f45565b6110776040830187610f45565b611084606083018661101e565b611091608083018561101e565b61109e60a0830184611039565b979650505050505050565b6110b28161100e565b81146110bd57600080fd5b50565b6000813590506110cf816110a9565b92915050565b6000806000606084860312156110ee576110ed610f6f565b5b60006110fc86828701610f8b565b935050602061110d868287016110c0565b925050604061111e868287016110c0565b9150509250925092565b6000806040838503121561113f5761113e610f6f565b5b600061114d85828601610f8b565b925050602061115e85828601610f8b565b9150509250929050565b61117181610fed565b811461117c57600080fd5b50565b60008135905061118e81611168565b92915050565b600080604083850312156111ab576111aa610f6f565b5b60006111b985828601610f8b565b92505060206111ca8582860161117f565b9150509250929050565b600082825260208201905092915050565b7f7374617274206174203c206e6f77000000000000000000000000000000000000600082015250565b600061121b600e836111d4565b9150611226826111e5565b602082019050919050565b6000602082019050818103600083015261124a8161120e565b9050919050565b7f656e64206174203c207374617274206174000000000000000000000000000000600082015250565b60006112876011836111d4565b915061129282611251565b602082019050919050565b600060208201905081810360008301526112b68161127a565b9050919050565b7f4e487b7100000000000000000000000000000000000000000000000000000000600052601160045260246000fd5b60006112f782610f3b565b915061130283610f3b565b925082820190508082111561131a576113196112bd565b5b92915050565b7f656e64206174203e206d6178206475726174696f6e0000000000000000000000600082015250565b60006113566015836111d4565b915061136182611320565b602082019050919050565b6000602082019050818103600083015261138581611349565b9050919050565b60006080820190506113a16000830187610f45565b6113ae6020830186610f45565b6113bb604083018561101e565b6113c8606083018461101e565b95945050505050565b7f6e6f742063726561746f72000000000000000000000000000000000000000000600082015250565b6000611407600b836111d4565b9150611412826113d1565b602082019050919050565b60006020820190508181036000830152611436816113fa565b9050919050565b7f6e6f7420656e6465640000000000000000000000000000000000000000000000600082015250565b60006114736009836111d4565b915061147e8261143d565b602082019050919050565b600060208201905081810360008301526114a281611466565b9050919050565b7f706c6564676564203c20676f616c000000000000000000000000000000000000600082015250565b60006114df600e836111d4565b91506114ea826114a9565b602082019050919050565b6000602082019050818103600083015261150e816114d2565b9050919050565b7f636c61696d656400000000000000000000000000000000000000000000000000600082015250565b600061154b6007836111d4565b915061155682611515565b602082019050919050565b6000602082019050818103600083015261157a8161153e565b9050919050565b7f7374617274656400000000000000000000000000000000000000000000000000600082015250565b60006115b76007836111d4565b91506115c282611581565b602082019050919050565b600060208201905081810360008301526115e6816115aa565b9050919050565b7f656e646564000000000000000000000000000000000000000000000000000000600082015250565b60006116236005836111d4565b915061162e826115ed565b602082019050919050565b6000602082019050818103600083015261165281611616565b9050919050565b7f63616e6e6f7420756e706c65646765206d6f7265207468616e20706c6564676560008201527f6420616d6f756e74000000000000000000000000000000000000000000000000602082015250565b60006116b56028836111d4565b91506116c082611659565b604082019050919050565b600060208201905081810360008301526116e4816116a8565b9050919050565b60006116f682610f3b565b915061170183610f3b565b9250828203905081811115611719576117186112bd565b5b92915050565b7f6e6f742073746172746564000000000000000000000000000000000000000000600082015250565b6000611755600b836111d4565b91506117608261171f565b602082019050919050565b6000602082019050818103600083015261178481611748565b905091905056fea2646970667358221220555a053eff8459ee0a2133e8821278a493fd12aa5643477a92d22717da69e0c064736f6c63430008120033",
  "linkReferences": {},
  "deployedLinkReferences": {}
}