{
  "_format": "hh-sol-artifact-1",
  "contractName": "CrowdFund",
  "sourceName": "contracts/Crowdfund.sol",
  "abi": [
    {
      "inputs": [],
      "stateMutability": "nonpayable",
      "type": "constructor"
    },
    {
      "anonymous": false,
      "inputs": [
        {
          "indexed": false,
          "internalType": "uint256",
          "name": "id",
          "type": "uint256"
        }
      ],
      "name": "Cancel",
      "type": "event"
    },
    {
      "anonymous": false,
      "inputs": [
        {
          "indexed": false,
          "internalType": "uint256",
          "name": "id",
          "type": "uint256"
        }
      ],
      "name": "Claim",
      "type": "event"
    },
    {
      "anonymous": false,
      "inputs": [
        {
          "indexed": false,
          "internalType": "uint256",
          "name": "id",
          "type": "uint256"
        },
        {
          "indexed": true,
          "internalType": "address",
          "name": "creator",
          "type": "address"
        },
        {
          "indexed": false,
          "internalType": "uint256",
          "name": "goal",
          "type": "uint256"
        },
        {
          "indexed": false,
          "internalType": "uint32",
          "name": "startAt",
          "type": "uint32"
        },
        {
          "indexed": false,
          "internalType": "uint32",
          "name": "endAt",
          "type": "uint32"
        }
      ],
      "name": "Launch",
      "type": "event"
    },
    {
      "anonymous": false,
      "inputs": [
        {
          "indexed": true,
          "internalType": "uint256",
          "name": "id",
          "type": "uint256"
        },
        {
          "indexed": true,
          "internalType": "address",
          "name": "caller",
          "type": "address"
        },
        {
          "indexed": false,
          "internalType": "uint256",
          "name": "amount",
          "type": "uint256"
        }
      ],
      "name": "Pledge",
      "type": "event"
    },
    {
      "anonymous": false,
      "inputs": [
        {
          "indexed": false,
          "internalType": "uint256",
          "name": "id",
          "type": "uint256"
        },
        {
          "indexed": true,
          "internalType": "address",
          "name": "caller",
          "type": "address"
        },
        {
          "indexed": false,
          "internalType": "uint256",
          "name": "amount",
          "type": "uint256"
        }
      ],
      "name": "Refund",
      "type": "event"
    },
    {
      "anonymous": false,
      "inputs": [
        {
          "indexed": true,
          "internalType": "uint256",
          "name": "id",
          "type": "uint256"
        },
        {
          "indexed": true,
          "internalType": "address",
          "name": "caller",
          "type": "address"
        },
        {
          "indexed": false,
          "internalType": "uint256",
          "name": "amount",
          "type": "uint256"
        }
      ],
      "name": "Unpledge",
      "type": "event"
    },
    {
      "inputs": [
        {
          "internalType": "uint256",
          "name": "",
          "type": "uint256"
        }
      ],
      "name": "campaigns",
      "outputs": [
        {
          "internalType": "address",
          "name": "creator",
          "type": "address"
        },
        {
          "internalType": "uint256",
          "name": "goal",
          "type": "uint256"
        },
        {
          "internalType": "uint256",
          "name": "pledged",
          "type": "uint256"
        },
        {
          "internalType": "uint32",
          "name": "startAt",
          "type": "uint32"
        },
        {
          "internalType": "uint32",
          "name": "endAt",
          "type": "uint32"
        },
        {
          "internalType": "bool",
          "name": "claimed",
          "type": "bool"
        }
      ],
      "stateMutability": "view",
      "type": "function"
    },
    {
      "inputs": [
        {
          "internalType": "uint256",
          "name": "_id",
          "type": "uint256"
        }
      ],
      "name": "cancel",
      "outputs": [],
      "stateMutability": "nonpayable",
      "type": "function"
    },
    {
      "inputs": [
        {
          "internalType": "uint256",
          "name": "_id",
          "type": "uint256"
        }
      ],
      "name": "claim",
      "outputs": [],
      "stateMutability": "nonpayable",
      "type": "function"
    },
    {
      "inputs": [],
      "name": "count",
      "outputs": [
        {
          "internalType": "uint256",
          "name": "",
          "type": "uint256"
        }
      ],
      "stateMutability": "view",
      "type": "function"
    },
    {
      "inputs": [
        {
          "internalType": "uint256",
          "name": "_id",
          "type": "uint256"
        }
      ],
      "name": "getCampaign",
      "outputs": [
        {
          "internalType": "address",
          "name": "creator",
          "type": "address"
        },
        {
          "internalType": "uint256",
          "name": "goal",
          "type": "uint256"
        },
        {
          "internalType": "uint256",
          "name": "pledged",
          "type": "uint256"
        },
        {
          "internalType": "uint32",
          "name": "startAt",
          "type": "uint32"
        },
        {
          "internalType": "uint32",
          "name": "endAt",
          "type": "uint32"
        },
        {
          "internalType": "bool",
          "name": "claimed",
          "type": "bool"
        }
      ],
      "stateMutability": "view",
      "type": "function"
    },
    {
      "inputs": [
        {
          "internalType": "uint256",
          "name": "_goal",
          "type": "uint256"
        },
        {
          "internalType": "uint32",
          "name": "_startAt",
          "type": "uint32"
        },
        {
          "internalType": "uint32",
          "name": "_endAt",
          "type": "uint32"
        }
      ],
      "name": "launch",
      "outputs": [
        {
          "internalType": "uint256",
          "name": "id",
          "type": "uint256"
        }
      ],
      "stateMutability": "nonpayable",
      "type": "function"
    },
    {
      "inputs": [
        {
          "internalType": "uint256",
          "name": "_id",
          "type": "uint256"
        }
      ],
      "name": "pledge",
      "outputs": [],
      "stateMutability": "payable",
      "type": "function"
    },
    {
      "inputs": [
        {
          "internalType": "uint256",
          "name": "",
          "type": "uint256"
        },
        {
          "internalType": "address",
          "name": "",
          "type": "address"
        }
      ],
      "name": "pledgedAmount",
      "outputs": [
        {
          "internalType": "uint256",
          "name": "",
          "type": "uint256"
        }
      ],
      "stateMutability": "view",
      "type": "function"
    },
    {
      "inputs": [
        {
          "internalType": "uint256",
          "name": "_id",
          "type": "uint256"
        },
        {
          "internalType": "uint256",
          "name": "_amount",
          "type": "uint256"
        }
      ],
      "name": "unpledge",
      "outputs": [],
      "stateMutability": "nonpayable",
      "type": "function"
    }
  ],
  "bytecode": "0x608060405234801561001057600080fd5b506117de806100206000396000f3fe6080604052600436106100865760003560e01c806340e58ee51161005957806340e58ee51461015e5780635598f8cc14610187578063711853ab146101c95780637326c9c0146101f2578063aa4fb63a1461020e57610086565b806306661abd1461008b578063141961bc146100b65780632c63f146146100f8578063379607f514610135575b600080fd5b34801561009757600080fd5b506100a061024b565b6040516100ad9190610f71565b60405180910390f35b3480156100c257600080fd5b506100dd60048036038101906100d89190610fbd565b610251565b6040516100ef96959493929190611065565b60405180910390f35b34801561010457600080fd5b5061011f600480360381019061011a91906110f2565b6102da565b60405161012c9190610f71565b60405180910390f35b34801561014157600080fd5b5061015c60048036038101906101579190610fbd565b610579565b005b34801561016a57600080fd5b5061018560048036038101906101809190610fbd565b6107be565b005b34801561019357600080fd5b506101ae60048036038101906101a99190610fbd565b610a39565b6040516101c096959493929190611065565b60405180910390f35b3480156101d557600080fd5b506101f060048036038101906101eb9190611145565b610b69565b005b61020c60048036038101906102079190610fbd565b610d8d565b005b34801561021a57600080fd5b50610235600480360381019061023091906111b1565b610f33565b6040516102429190610f71565b60405180910390f35b60005481565b60016020528060005260406000206000915090508060000160009054906101000a900473ffffffffffffffffffffffffffffffffffffffff16908060010154908060020154908060030160009054906101000a900463ffffffff16908060030160049054906101000a900463ffffffff16908060030160089054906101000a900460ff16905086565b6000428363ffffffff161015610325576040517f08c379a000000000000000000000000000000000000000000000000000000000815260040161031c9061124e565b60405180910390fd5b8263ffffffff168263ffffffff161015610374576040517f08c379a000000000000000000000000000000000000000000000000000000000815260040161036b906112ba565b60405180910390fd5b6276a700426103839190611309565b8263ffffffff1611156103cb576040517f08c379a00000000000000000000000000000000000000000000000000000000081526004016103c290611389565b60405180910390fd5b60016000808282546103dd9190611309565b925050819055506040518060c001604052803373ffffffffffffffffffffffffffffffffffffffff168152602001858152602001600081526020018463ffffffff1681526020018363ffffffff16815260200160001515815250600160008054815260200190815260200160002060008201518160000160006101000a81548173ffffffffffffffffffffffffffffffffffffffff021916908373ffffffffffffffffffffffffffffffffffffffff160217905550602082015181600101556040820151816002015560608201518160030160006101000a81548163ffffffff021916908363ffffffff16021790555060808201518160030160046101000a81548163ffffffff021916908363ffffffff16021790555060a08201518160030160086101000a81548160ff0219169083151502179055509050503373ffffffffffffffffffffffffffffffffffffffff167f0601cd0d650b473037e838a2696d41e654433d065b3f56b28d1d3302e44a304f60005486868660405161056594939291906113a9565b60405180910390a260005490509392505050565b60006001600083815260200190815260200160002090503373ffffffffffffffffffffffffffffffffffffffff168160000160009054906101000a900473ffffffffffffffffffffffffffffffffffffffff1673ffffffffffffffffffffffffffffffffffffffff1614610622576040517f08c379a00000000000000000000000000000000000000000000000000000000081526004016106199061143a565b60405180910390fd5b8060030160049054906101000a900463ffffffff1663ffffffff16421161067e576040517f08c379a0000000000000000000000000000000000000000000000000000000008152600401610675906114a6565b60405180910390fd5b8060010154816002015410156106c9576040517f08c379a00000000000000000000000000000000000000000000000000000000081526004016106c090611512565b60405180910390fd5b8060030160089054906101000a900460ff161561071b576040517f08c379a00000000000000000000000000000000000000000000000000000000081526004016107129061157e565b60405180910390fd5b60018160030160086101000a81548160ff0219169083151502179055503373ffffffffffffffffffffffffffffffffffffffff166108fc82600201549081150290604051600060405180830381858888f19350505050158015610782573d6000803e3d6000fd5b507f7bb2b3c10797baccb6f8c4791f1edd6ca2f0d028ee0eda64b01a9a57e3a653f7826040516107b29190610f71565b60405180910390a15050565b6000600160008381526020019081526020016000206040518060c00160405290816000820160009054906101000a900473ffffffffffffffffffffffffffffffffffffffff1673ffffffffffffffffffffffffffffffffffffffff1673ffffffffffffffffffffffffffffffffffffffff16815260200160018201548152602001600282015481526020016003820160009054906101000a900463ffffffff1663ffffffff1663ffffffff1681526020016003820160049054906101000a900463ffffffff1663ffffffff1663ffffffff1681526020016003820160089054906101000a900460ff16151515158152505090503373ffffffffffffffffffffffffffffffffffffffff16816000015173ffffffffffffffffffffffffffffffffffffffff1614610923576040517f08c379a000000000000000000000000000000000000000000000000000000000815260040161091a9061143a565b60405180910390fd5b806060015163ffffffff16421061096f576040517f08c379a0000000000000000000000000000000000000000000000000000000008152600401610966906115ea565b60405180910390fd5b60016000838152602001908152602001600020600080820160006101000a81549073ffffffffffffffffffffffffffffffffffffffff0219169055600182016000905560028201600090556003820160006101000a81549063ffffffff02191690556003820160046101000a81549063ffffffff02191690556003820160086101000a81549060ff021916905550507f8bf30e7ff26833413be5f69e1d373744864d600b664204b4a2f9844a8eedb9ed82604051610a2d9190610f71565b60405180910390a15050565b6000806000806000806000600160008981526020019081526020016000206040518060c00160405290816000820160009054906101000a900473ffffffffffffffffffffffffffffffffffffffff1673ffffffffffffffffffffffffffffffffffffffff1673ffffffffffffffffffffffffffffffffffffffff16815260200160018201548152602001600282015481526020016003820160009054906101000a900463ffffffff1663ffffffff1663ffffffff1681526020016003820160049054906101000a900463ffffffff1663ffffffff1663ffffffff1681526020016003820160089054906101000a900460ff1615151515815250509050806000015181602001518260400151836060015184608001518560a001519650965096509650965096505091939550919395565b60006001600084815260200190815260200160002090508060030160049054906101000a900463ffffffff1663ffffffff16421115610bdd576040517f08c379a0000000000000000000000000000000000000000000000000000000008152600401610bd490611656565b60405180910390fd5b816002600085815260200190815260200160002060003373ffffffffffffffffffffffffffffffffffffffff1673ffffffffffffffffffffffffffffffffffffffff168152602001908152602001600020541015610c70576040517f08c379a0000000000000000000000000000000000000000000000000000000008152600401610c67906116e8565b60405180910390fd5b81816002016000828254610c849190611708565b92505081905550816002600085815260200190815260200160002060003373ffffffffffffffffffffffffffffffffffffffff1673ffffffffffffffffffffffffffffffffffffffff1681526020019081526020016000206000828254610ceb9190611708565b925050819055503373ffffffffffffffffffffffffffffffffffffffff166108fc839081150290604051600060405180830381858888f19350505050158015610d38573d6000803e3d6000fd5b503373ffffffffffffffffffffffffffffffffffffffff16837f2eeeab891b26a214d1b25749f88a406bdea852bd8c9bfda977e0ef8114c180ba84604051610d809190610f71565b60405180910390a3505050565b60006001600083815260200190815260200160002090508060030160009054906101000a900463ffffffff1663ffffffff16421015610e01576040517f08c379a0000000000000000000000000000000000000000000000000000000008152600401610df890611788565b60405180910390fd5b8060030160049054906101000a900463ffffffff1663ffffffff16421115610e5e576040517f08c379a0000000000000000000000000000000000000000000000000000000008152600401610e5590611656565b60405180910390fd5b34816002016000828254610e729190611309565b92505081905550346002600084815260200190815260200160002060003373ffffffffffffffffffffffffffffffffffffffff1673ffffffffffffffffffffffffffffffffffffffff1681526020019081526020016000206000828254610ed99190611309565b925050819055503373ffffffffffffffffffffffffffffffffffffffff16827f06bdb975df800a73232998e71ed585d536222f1dfeaa622d7f62a23ada686c8234604051610f279190610f71565b60405180910390a35050565b6002602052816000526040600020602052806000526040600020600091509150505481565b6000819050919050565b610f6b81610f58565b82525050565b6000602082019050610f866000830184610f62565b92915050565b600080fd5b610f9a81610f58565b8114610fa557600080fd5b50565b600081359050610fb781610f91565b92915050565b600060208284031215610fd357610fd2610f8c565b5b6000610fe184828501610fa8565b91505092915050565b600073ffffffffffffffffffffffffffffffffffffffff82169050919050565b600061101582610fea565b9050919050565b6110258161100a565b82525050565b600063ffffffff82169050919050565b6110448161102b565b82525050565b60008115159050919050565b61105f8161104a565b82525050565b600060c08201905061107a600083018961101c565b6110876020830188610f62565b6110946040830187610f62565b6110a1606083018661103b565b6110ae608083018561103b565b6110bb60a0830184611056565b979650505050505050565b6110cf8161102b565b81146110da57600080fd5b50565b6000813590506110ec816110c6565b92915050565b60008060006060848603121561110b5761110a610f8c565b5b600061111986828701610fa8565b935050602061112a868287016110dd565b925050604061113b868287016110dd565b9150509250925092565b6000806040838503121561115c5761115b610f8c565b5b600061116a85828601610fa8565b925050602061117b85828601610fa8565b9150509250929050565b61118e8161100a565b811461119957600080fd5b50565b6000813590506111ab81611185565b92915050565b600080604083850312156111c8576111c7610f8c565b5b60006111d685828601610fa8565b92505060206111e78582860161119c565b9150509250929050565b600082825260208201905092915050565b7f7374617274206174203c206e6f77000000000000000000000000000000000000600082015250565b6000611238600e836111f1565b915061124382611202565b602082019050919050565b600060208201905081810360008301526112678161122b565b9050919050565b7f656e64206174203c207374617274206174000000000000000000000000000000600082015250565b60006112a46011836111f1565b91506112af8261126e565b602082019050919050565b600060208201905081810360008301526112d381611297565b9050919050565b7f4e487b7100000000000000000000000000000000000000000000000000000000600052601160045260246000fd5b600061131482610f58565b915061131f83610f58565b9250828201905080821115611337576113366112da565b5b92915050565b7f656e64206174203e206d6178206475726174696f6e0000000000000000000000600082015250565b60006113736015836111f1565b915061137e8261133d565b602082019050919050565b600060208201905081810360008301526113a281611366565b9050919050565b60006080820190506113be6000830187610f62565b6113cb6020830186610f62565b6113d8604083018561103b565b6113e5606083018461103b565b95945050505050565b7f6e6f742063726561746f72000000000000000000000000000000000000000000600082015250565b6000611424600b836111f1565b915061142f826113ee565b602082019050919050565b6000602082019050818103600083015261145381611417565b9050919050565b7f6e6f7420656e6465640000000000000000000000000000000000000000000000600082015250565b60006114906009836111f1565b915061149b8261145a565b602082019050919050565b600060208201905081810360008301526114bf81611483565b9050919050565b7f706c6564676564203c20676f616c000000000000000000000000000000000000600082015250565b60006114fc600e836111f1565b9150611507826114c6565b602082019050919050565b6000602082019050818103600083015261152b816114ef565b9050919050565b7f636c61696d656400000000000000000000000000000000000000000000000000600082015250565b60006115686007836111f1565b915061157382611532565b602082019050919050565b600060208201905081810360008301526115978161155b565b9050919050565b7f7374617274656400000000000000000000000000000000000000000000000000600082015250565b60006115d46007836111f1565b91506115df8261159e565b602082019050919050565b60006020820190508181036000830152611603816115c7565b9050919050565b7f656e646564000000000000000000000000000000000000000000000000000000600082015250565b60006116406005836111f1565b915061164b8261160a565b602082019050919050565b6000602082019050818103600083015261166f81611633565b9050919050565b7f63616e6e6f7420756e706c65646765206d6f7265207468616e20706c6564676560008201527f6420616d6f756e74000000000000000000000000000000000000000000000000602082015250565b60006116d26028836111f1565b91506116dd82611676565b604082019050919050565b60006020820190508181036000830152611701816116c5565b9050919050565b600061171382610f58565b915061171e83610f58565b9250828203905081811115611736576117356112da565b5b92915050565b7f6e6f742073746172746564000000000000000000000000000000000000000000600082015250565b6000611772600b836111f1565b915061177d8261173c565b602082019050919050565b600060208201905081810360008301526117a181611765565b905091905056fea264697066735822122063af38adca6a71bae8a6ac6438269dd7409dbeb1596467e2972d7a3eb1c63b4864736f6c63430008120033",
  "linkReferences": {},
  "deployedLinkReferences": {}
}